:02000000112EBF
:100BC2005826E32D831687128312871208000730F6
:100BD200990083169112111308001430F0000000DE
:100BE200F00BF02D080064008001840A040603194A
:100BF20000340406F52D073099008316111695016D
:100C02000714903083129F00080007308312990066
:100C1200831691118512051283120512851208009E
:100C22002030831384003130F425FF30B100B2004C
:100C3200B3008301C12E0711831687108312871018
:100C4200EE2583120715EE258312871408008316FA
:100C520087100711831287140715EE258312871058
:100C6200EE2583120711EE2D240B3A2EA401051551
:100C72003B2E05112408023A031D432EA4018715B9
:100C820005150800051187110800F1008316871069
:100C92008312871007117108031D87140319871027
:100CA200EE2583120715EE2583120711080007307F
:100CB20099008316111091101111911305108510CE
:100CC2000511071287118515831205148514051164
:100CD200071687110800F301831687148312071180
:100CE200F201EE2583120715070C0139F1000310FA
:100CF200730D7104F300EE25831207110830F20A16
:100D02007202031C722E73080800250B8D2EA5019A
:100D1200A326F601F60A8E2E87127603031D08001B
:100D22000230F5008630F4009930F300F30B972E71
:100D3200F40B972EF50B972E8312AC0AAD0AAE0A6E
:100D4200A7010800F101F20100308312871E013071
:100D5200F000F00EF00D07087006DF39700687000C
:100D6200A630F000F00BB32E6400F10A0319F20A68
:100D7200003072021E300319710203180800A52EFA
:100D8200E8250626FC25E125A101A3018312A70877
:100D9200031DDD2E2F30F5000230F6004030E32631
:100DA200013A031DDD2E2F08FD003008FC007D08EE
:100DB200F1007C08F0004B27270BE02EA701352617
:100DC2008626C72EF9007508FA0028260314790D25
:100DD2001127003A0319EF2E1C260034FB01760876
:100DE2007B0203180F2F7A0884006C26831380007D
:100DF200FA0A7608FF3EF700FF3003180030F800C9
:100E0200803A803C031D072F77087B0203180B2FC3
:100E120000300C2F01304626FB0AF02E1C2601342E
:100E2200F30083168710F40183120711EE2573086D
:100E3200F10007300310F10CFF3E031D1B2F710858
:100E42000139F200F20D831207087206FD397206AB
:100E52008700EE2583120715EE2508300310F30DE7
:100E6200F40A74028312031C162F071183168714C7
:100E7200EE2583120715EE25FA30F400F403740808
:100E8200FF3A83120319492F87183F2F07110034A5
:100E920007110134842F31082C060319D72F2C088F
:100EA200B100A401A40AA501A50AAA01AB01AB0ADB
:100EB200A601A701A101D72F32082D060319D72FAA
:100EC2002D08B200AB01AB0AA501A50AA701A70A2A
:100ED200D72FA908031DD72FA901A90AAB01D72F24
:100EE200A908031D772FA901A90AAB01A908031DAF
:100EF2007D2FA901A90AAB01A908031D6A2FA90127
:100F0200A90AAB016A2F7108003A0319A12F013A0D
:100F12000319AF2F033A0319B42F063A0319B92F55
:100F22000C3A0319BE2F183A0319C32F303A03198A
:100F3200C82F603A0319CD2FC03A0319D22FD72FE9
:100F42007008103A0319832F303A03195D2F603A63
:100F52000319832FC03A03196A2FD72F7008003A5A
:100F620003197D2FD72F7008003A0319832FD72F2B
:100F72007008003A0319772FD72F7008003A031927
:100F8200832FD72F7008003A0319712FD72F7008BB
:100F9200003A0319832FD72F7008003A03194C2FF8
:100FA200D72F7008003A0319832FD72F33082E0644
:100FB200031D290B0800AB08031D08002E08B3000F
:100FC200A901AB01AB0AAA0AA60A2A0BE92F8510CE
:100FD2002A08023A031907122608033A031DF32FBF
:100FE2000230A5002608043A031DF92F0510071246
:0E0FF2002608053A03198510A501A50A080076
:02400E00A4010B
:00000001FF
